{"abi":[{"type":"constructor","inputs":[{"name":"_client","type":"address","internalType":"address"},{"name":"_provider","type":"address","internalType":"address"},{"name":"amounts","type":"uint256[]","internalType":"uint256[]"},{"name":"deadlines","type":"uint64[]","internalType":"uint64[]"}],"stateMutability":"nonpayable"},{"type":"function","name":"DISPUTE_WINDOW","inputs":[],"outputs":[{"name":"","type":"uint64","internalType":"uint64"}],"stateMutability":"view"},{"type":"function","name":"approve","inputs":[{"name":"i","type":"uint256","internalType":"uint256"}],"outputs":[],"stateMutability":"nonpayable"},{"type":"function","name":"claim","inputs":[{"name":"i","type":"uint256","internalType":"uint256"}],"outputs":[],"stateMutability":"nonpayable"},{"type":"function","name":"client","inputs":[],"outputs":[{"name":"","type":"address","internalType":"address"}],"stateMutability":"view"},{"type":"function","name":"fund","inputs":[],"outputs":[],"stateMutability":"payable"},{"type":"function","name":"funded","inputs":[],"outputs":[{"name":"","type":"bool","internalType":"bool"}],"stateMutability":"view"},{"type":"function","name":"getMilestone","inputs":[{"name":"i","type":"uint256","internalType":"uint256"}],"outputs":[{"name":"","type":"tuple","internalType":"struct MilestoneEscrow.Milestone","components":[{"name":"amount","type":"uint256","internalType":"uint256"},{"name":"deadline","type":"uint64","internalType":"uint64"},{"name":"status","type":"uint8","internalType":"enum MilestoneEscrow.Status"},{"name":"proofURI","type":"string","internalType":"string"},{"name":"reasonURI","type":"string","internalType":"string"},{"name":"submittedAt","type":"uint64","internalType":"uint64"}]}],"stateMutability":"view"},{"type":"function","name":"milestonesCount","inputs":[],"outputs":[{"name":"","type":"uint256","internalType":"uint256"}],"stateMutability":"view"},{"type":"function","name":"provider","inputs":[],"outputs":[{"name":"","type":"address","internalType":"address"}],"stateMutability":"view"},{"type":"function","name":"reject","inputs":[{"name":"i","type":"uint256","internalType":"uint256"},{"name":"reasonURI","type":"string","internalType":"string"}],"outputs":[],"stateMutability":"nonpayable"},{"type":"function","name":"submit","inputs":[{"name":"i","type":"uint256","internalType":"uint256"},{"name":"proofURI","type":"string","internalType":"string"}],"outputs":[],"stateMutability":"nonpayable"},{"type":"function","name":"totalAmount","inputs":[],"outputs":[{"name":"","type":"uint256","internalType":"uint256"}],"stateMutability":"view"},{"type":"event","name":"Approved","inputs":[{"name":"milestoneIndex","type":"uint256","indexed":true,"internalType":"uint256"}],"anonymous":false},{"type":"event","name":"EscrowCreated","inputs":[{"name":"client","type":"address","indexed":true,"internalType":"address"},{"name":"provider","type":"address","indexed":true,"internalType":"address"},{"name":"milestones","type":"uint256","indexed":false,"internalType":"uint256"},{"name":"totalAmount","type":"uint256","indexed":false,"internalType":"uint256"}],"anonymous":false},{"type":"event","name":"Funded","inputs":[{"name":"client","type":"address","indexed":true,"internalType":"address"},{"name":"amount","type":"uint256","indexed":false,"internalType":"uint256"}],"anonymous":false},{"type":"event","name":"Paid","inputs":[{"name":"milestoneIndex","type":"uint256","indexed":true,"internalType":"uint256"},{"name":"to","type":"address","indexed":true,"internalType":"address"},{"name":"amount","type":"uint256","indexed":false,"internalType":"uint256"}],"anonymous":false},{"type":"event","name":"Rejected","inputs":[{"name":"milestoneIndex","type":"uint256","indexed":true,"internalType":"uint256"},{"name":"reasonURI","type":"string","indexed":false,"internalType":"string"}],"anonymous":false},{"type":"event","name":"Submitted","inputs":[{"name":"milestoneIndex","type":"uint256","indexed":true,"internalType":"uint256"},{"name":"proofURI","type":"string","indexed":false,"internalType":"string"}],"anonymous":false}],"bytecode":{"object":"0x60c060405234801561000f575f5ffd5b506040516130703803806130708339818101604052810190610031919061075d565b5f73ffffffffffffffffffffffffffffffffffffffff168473ffffffffffffffffffffffffffffffffffffffff161415801561009957505f73ffffffffffffffffffffffffffffffffffffffff168373ffffffffffffffffffffffffffffffffffffffff1614155b6100d8576040517f08c379a00000000000000000000000000000000000000000000000000000000081526004016100cf90610853565b60405180910390fd5b5f82511161011b576040517f08c379a0000000000000000000000000000000000000000000000000000000008152600401610112906108bb565b60405180910390fd5b805182511461015f576040517f08c379a000000000000000000000000000000000000000000000000000000000815260040161015690610923565b60405180910390fd5b8373ffffffffffffffffffffffffffffffffffffffff1660808173ffffffffffffffffffffffffffffffffffffffff16815250508273ffffffffffffffffffffffffffffffffffffffff1660a08173ffffffffffffffffffffffffffffffffffffffff16815250505f5f5f90505b83518110156103f4575f8482815181106101ea576101e9610941565b5b602002602001015111610232576040517f08c379a0000000000000000000000000000000000000000000000000000000008152600401610229906109b8565b60405180910390fd5b60026040518060c0016040528086848151811061025257610251610941565b5b6020026020010151815260200185848151811061027257610271610941565b5b602002602001015167ffffffffffffffff1681526020015f600481111561029c5761029b6109d6565b5b815260200160405180602001604052805f815250815260200160405180602001604052805f81525081526020015f67ffffffffffffffff16815250908060018154018082558091505060019003905f5260205f2090600502015f909190919091505f820151815f01556020820151816001015f6101000a81548167ffffffffffffffff021916908367ffffffffffffffff16021790555060408201518160010160086101000a81548160ff0219169083600481111561035e5761035d6109d6565b5b021790555060608201518160020190816103789190610c0a565b50608082015181600301908161038e9190610c0a565b5060a0820151816004015f6101000a81548167ffffffffffffffff021916908367ffffffffffffffff16021790555050508381815181106103d2576103d1610941565b5b6020026020010151826103e59190610d06565b915080806001019150506101cd565b508060018190555060a05173ffffffffffffffffffffffffffffffffffffffff1660805173ffffffffffffffffffffffffffffffffffffffff167f5f1c67a4567ebc365d6a9ce0622c51e2fff9198c740d4fb8b5af2d4b4b2852af855184604051610460929190610d48565b60405180910390a35050505050610d6f565b5f604051905090565b5f5ffd5b5f5ffd5b5f73ffffffffffffffffffffffffffffffffffffffff82169050919050565b5f6104ac82610483565b9050919050565b6104bc816104a2565b81146104c6575f5ffd5b50565b5f815190506104d7816104b3565b92915050565b5f5ffd5b5f601f19601f8301169050919050565b7f4e487b71000000000000000000000000000000000000000000000000000000005f52604160045260245ffd5b610527826104e1565b810181811067ffffffffffffffff82111715610546576105456104f1565b5b80604052505050565b5f610558610472565b9050610564828261051e565b919050565b5f67ffffffffffffffff821115610583576105826104f1565b5b602082029050602081019050919050565b5f5ffd5b5f819050919050565b6105aa81610598565b81146105b4575f5ffd5b50565b5f815190506105c5816105a1565b92915050565b5f6105dd6105d884610569565b61054f565b90508083825260208201905060208402830185811115610600576105ff610594565b5b835b81811015610629578061061588826105b7565b845260208401935050602081019050610602565b5050509392505050565b5f82601f830112610647576106466104dd565b5b81516106578482602086016105cb565b91505092915050565b5f67ffffffffffffffff82111561067a576106796104f1565b5b602082029050602081019050919050565b5f67ffffffffffffffff82169050919050565b6106a78161068b565b81146106b1575f5ffd5b50565b5f815190506106c28161069e565b92915050565b5f6106da6106d584610660565b61054f565b905080838252602082019050602084028301858111156106fd576106fc610594565b5b835b81811015610726578061071288826106b4565b8452602084019350506020810190506106ff565b5050509392505050565b5f82601f830112610744576107436104dd565b5b81516107548482602086016106c8565b91505092915050565b5f5f5f5f608085870312156107755761077461047b565b5b5f610782878288016104c9565b9450506020610793878288016104c9565b935050604085015167ffffffffffffffff8111156107b4576107b361047f565b5b6107c087828801610633565b925050606085015167ffffffffffffffff8111156107e1576107e061047f565b5b6107ed87828801610730565b91505092959194509250565b5f82825260208201905092915050565b7f5a45524f5f4144445200000000000000000000000000000000000000000000005f82015250565b5f61083d6009836107f9565b915061084882610809565b602082019050919050565b5f6020820190508181035f83015261086a81610831565b9050919050565b7f4e4f5f4d494c4553544f4e4553000000000000000000000000000000000000005f82015250565b5f6108a5600d836107f9565b91506108b082610871565b602082019050919050565b5f6020820190508181035f8301526108d281610899565b9050919050565b7f4c454e5f4d49534d4154434800000000000000000000000000000000000000005f82015250565b5f61090d600c836107f9565b9150610918826108d9565b602082019050919050565b5f6020820190508181035f83015261093a81610901565b9050919050565b7f4e487b71000000000000000000000000000000000000000000000000000000005f52603260045260245ffd5b7f5a45524f5f414d4f554e540000000000000000000000000000000000000000005f82015250565b5f6109a2600b836107f9565b91506109ad8261096e565b602082019050919050565b5f6020820190508181035f8301526109cf81610996565b9050919050565b7f4e487b71000000000000000000000000000000000000000000000000000000005f52602160045260245ffd5b5f81519050919050565b7f4e487b71000000000000000000000000000000000000000000000000000000005f52602260045260245ffd5b5f6002820490506001821680610a5157607f821691505b602082108103610a6457610a63610a0d565b5b50919050565b5f819050815f5260205f209050919050565b5f6020601f8301049050919050565b5f82821b905092915050565b5f60088302610ac67fffffffffffffffffffffffffffffffffffffffffffffffffffffffffffffffff82610a8b565b610ad08683610a8b565b95508019841693508086168417925050509392505050565b5f819050919050565b5f610b0b610b06610b0184610598565b610ae8565b610598565b9050919050565b5f819050919050565b610b2483610af1565b610b38610b3082610b12565b848454610a97565b825550505050565b5f5f905090565b610b4f610b40565b610b5a818484610b1b565b505050565b5b81811015610b7d57610b725f82610b47565b600181019050610b60565b5050565b601f821115610bc257610b9381610a6a565b610b9c84610a7c565b81016020851015610bab578190505b610bbf610bb785610a7c565b830182610b5f565b50505b505050565b5f82821c905092915050565b5f610be25f1984600802610bc7565b1980831691505092915050565b5f610bfa8383610bd3565b9150826002028217905092915050565b610c1382610a03565b67ffffffffffffffff811115610c2c57610c2b6104f1565b5b610c368254610a3a565b610c41828285610b81565b5f60209050601f831160018114610c72575f8415610c60578287015190505b610c6a8582610bef565b865550610cd1565b601f198416610c8086610a6a565b5f5b82811015610ca757848901518255600182019150602085019450602081019050610c82565b86831015610cc45784890151610cc0601f891682610bd3565b8355505b6001600288020188555050505b505050505050565b7f4e487b71000000000000000000000000000000000000000000000000000000005f52601160045260245ffd5b5f610d1082610598565b9150610d1b83610598565b9250828201905080821115610d3357610d32610cd9565b5b92915050565b610d4281610598565b82525050565b5f604082019050610d5b5f830185610d39565b610d686020830184610d39565b9392505050565b60805160a0516122a1610dcf5f395f818161028e01528181610523015281816107ed015281816108b70152818161092e015281816112de01526113a801525f81816102b201528181610cc601528181610f10015261109901526122a15ff3fe6080604052600436106100a6575f3560e01c806371d68a971161006357806371d68a97146101b4578063ab36e4a6146101dc578063b60d428814610206578063b759f95414610210578063f3a504f214610238578063f585dc5714610262576100a6565b8063085d4883146100aa578063109e94cf146100d45780631a39d8ef146100fe5780632442e1cb14610128578063379607f5146101645780635d63f6c61461018c575b5f5ffd5b3480156100b5575f5ffd5b506100be61028c565b6040516100cb91906114cc565b60405180910390f35b3480156100df575f5ffd5b506100e86102b0565b6040516100f591906114cc565b60405180910390f35b348015610109575f5ffd5b506101126102d4565b60405161011f91906114fd565b60405180910390f35b348015610133575f5ffd5b5061014e60048036038101906101499190611548565b6102da565b60405161015b9190611714565b60405180910390f35b34801561016f575f5ffd5b5061018a60048036038101906101859190611548565b610521565b005b348015610197575f5ffd5b506101b260048036038101906101ad9190611795565b61092c565b005b3480156101bf575f5ffd5b506101da60048036038101906101d59190611795565b610cc4565b005b3480156101e7575f5ffd5b506101f0610f02565b6040516101fd91906114fd565b60405180910390f35b61020e610f0e565b005b34801561021b575f5ffd5b5061023660048036038101906102319190611548565b611097565b005b348015610243575f5ffd5b5061024c61141d565b604051610259919061180c565b60405180910390f35b34801561026d575f5ffd5b5061027661142e565b6040516102839190611834565b60405180910390f35b7f000000000000000000000000000000000000000000000000000000000000000081565b7f000000000000000000000000000000000000000000000000000000000000000081565b60015481565b6102e2611435565b6002805490508210610329576040517f08c379a0000000000000000000000000000000000000000000000000000000008152600401610320906118a7565b60405180910390fd5b6002828154811061033d5761033c6118c5565b5b905f5260205f2090600502016040518060c00160405290815f8201548152602001600182015f9054906101000a900467ffffffffffffffff1667ffffffffffffffff1667ffffffffffffffff1681526020016001820160089054906101000a900460ff1660048111156103b3576103b26115a4565b5b60048111156103c5576103c46115a4565b5b81526020016002820180546103d99061191f565b80601f01602080910402602001604051908101604052809291908181526020018280546104059061191f565b80156104505780601f1061042757610100808354040283529160200191610450565b820191905f5260205f20905b81548152906001019060200180831161043357829003601f168201915b505050505081526020016003820180546104699061191f565b80601f01602080910402602001604051908101604052809291908181526020018280546104959061191f565b80156104e05780601f106104b7576101008083540402835291602001916104e0565b820191905f5260205f20905b8154815290600101906020018083116104c357829003601f168201915b50505050508152602001600482015f9054906101000a900467ffffffffffffffff1667ffffffffffffffff1667ffffffffffffffff16815250509050919050565b7f000000000000000000000000000000000000000000000000000000000000000073ffffffffffffffffffffffffffffffffffffffff163373ffffffffffffffffffffffffffffffffffffffff16146105af576040517f08c379a00000000000000000000000000000000000000000000000000000000081526004016105a690611999565b60405180910390fd5b5f5f9054906101000a900460ff166105fc576040517f08c379a00000000000000000000000000000000000000000000000000000000081526004016105f390611a01565b60405180910390fd5b6002805490508110610643576040517f08c379a000000000000000000000000000000000000000000000000000000000815260040161063a906118a7565b60405180910390fd5b5f60028281548110610658576106576118c5565b5b905f5260205f20906005020190506001600481111561067a576106796115a4565b5b8160010160089054906101000a900460ff16600481111561069e5761069d6115a4565b5b146106de576040517f08c379a00000000000000000000000000000000000000000000000000000000081526004016106d590611a69565b60405180910390fd5b5f816004015f9054906101000a900467ffffffffffffffff1667ffffffffffffffff1603610741576040517f08c379a000000000000000000000000000000000000000000000000000000000815260040161073890611ad1565b60405180910390fd5b6203f48067ffffffffffffffff16816004015f9054906101000a900467ffffffffffffffff1667ffffffffffffffff1661077b9190611b1c565b4210156107bd576040517f08c379a00000000000000000000000000000000000000000000000000000000081526004016107b490611b99565b60405180910390fd5b60048160010160086101000a81548160ff021916908360048111156107e5576107e46115a4565b5b02179055505f7f000000000000000000000000000000000000000000000000000000000000000073ffffffffffffffffffffffffffffffffffffffff16825f015460405161083290611be4565b5f6040518083038185875af1925050503d805f811461086c576040519150601f19603f3d011682016040523d82523d5f602084013e610871565b606091505b50509050806108b5576040517f08c379a00000000000000000000000000000000000000000000000000000000081526004016108ac90611c42565b60405180910390fd5b7f000000000000000000000000000000000000000000000000000000000000000073ffffffffffffffffffffffffffffffffffffffff16837f4f2d18324ee95128de091ed2adc501295479000ce4c2cec607aeb1b67e189e2f845f015460405161091f91906114fd565b60405180910390a3505050565b7f000000000000000000000000000000000000000000000000000000000000000073ffffffffffffffffffffffffffffffffffffffff163373ffffffffffffffffffffffffffffffffffffffff16146109ba576040517f08c379a00000000000000000000000000000000000000000000000000000000081526004016109b190611999565b60405180910390fd5b5f5f9054906101000a900460ff16610a07576040517f08c379a00000000000000000000000000000000000000000000000000000000081526004016109fe90611a01565b60405180910390fd5b5f831480610a745750600480811115610a2357610a226115a4565b5b6002600185610a329190611c60565b81548110610a4357610a426118c5565b5b905f5260205f20906005020160010160089054906101000a900460ff166004811115610a7257610a716115a4565b5b145b610ab3576040517f08c379a0000000000000000000000000000000000000000000000000000000008152600401610aaa90611cdd565b60405180910390fd5b6002805490508310610afa576040517f08c379a0000000000000000000000000000000000000000000000000000000008152600401610af1906118a7565b60405180910390fd5b5f60028481548110610b0f57610b0e6118c5565b5b905f5260205f20906005020190505f6004811115610b3057610b2f6115a4565b5b8160010160089054906101000a900460ff166004811115610b5457610b536115a4565b5b1480610b95575060036004811115610b6f57610b6e6115a4565b5b8160010160089054906101000a900460ff166004811115610b9357610b926115a4565b5b145b610bd4576040517f08c379a0000000000000000000000000000000000000000000000000000000008152600401610bcb90611a69565b60405180910390fd5b5f8383905011610c19576040517f08c379a0000000000000000000000000000000000000000000000000000000008152600401610c1090611d45565b60405180910390fd5b60018160010160086101000a81548160ff02191690836004811115610c4157610c406115a4565b5b02179055508282826002019182610c59929190611f3a565b5042816004015f6101000a81548167ffffffffffffffff021916908367ffffffffffffffff160217905550837f4265767722bbe0340188be0f4344c9badec6c9d1af21c6965f3aa73db885f9308484604051610cb6929190612041565b60405180910390a250505050565b7f000000000000000000000000000000000000000000000000000000000000000073ffffffffffffffffffffffffffffffffffffffff163373ffffffffffffffffffffffffffffffffffffffff1614610d52576040517f08c379a0000000000000000000000000000000000000000000000000000000008152600401610d49906120ad565b60405180910390fd5b5f5f9054906101000a900460ff16610d9f576040517f08c379a0000000000000000000000000000000000000000000000000000000008152600401610d9690611a01565b60405180910390fd5b6002805490508310610de6576040517f08c379a0000000000000000000000000000000000000000000000000000000008152600401610ddd906118a7565b60405180910390fd5b5f60028481548110610dfb57610dfa6118c5565b5b905f5260205f209060050201905060016004811115610e1d57610e1c6115a4565b5b8160010160089054906101000a900460ff166004811115610e4157610e406115a4565b5b14610e81576040517f08c379a0000000000000000000000000000000000000000000000000000000008152600401610e7890612115565b60405180910390fd5b60038160010160086101000a81548160ff02191690836004811115610ea957610ea86115a4565b5b02179055508282826003019182610ec1929190611f3a565b50837f1ec33cb62ecf0e65a07b81c73d499abb5af88584b9ae7cc9d4b1b80515dbe0288484604051610ef4929190612041565b60405180910390a250505050565b5f600280549050905090565b7f000000000000000000000000000000000000000000000000000000000000000073ffffffffffffffffffffffffffffffffffffffff163373ffffffffffffffffffffffffffffffffffffffff1614610f9c576040517f08c379a0000000000000000000000000000000000000000000000000000000008152600401610f93906120ad565b60405180910390fd5b5f5f9054906101000a900460ff1615610fea576040517f08c379a0000000000000000000000000000000000000000000000000000000008152600401610fe19061217d565b60405180910390fd5b600154341461102e576040517f08c379a0000000000000000000000000000000000000000000000000000000008152600401611025906121e5565b60405180910390fd5b60015f5f6101000a81548160ff0219169083151502179055503373ffffffffffffffffffffffffffffffffffffffff167f5af8184bef8e4b45eb9f6ed7734d04da38ced226495548f46e0c8ff8d7d9a5243460405161108d91906114fd565b60405180910390a2565b7f000000000000000000000000000000000000000000000000000000000000000073ffffffffffffffffffffffffffffffffffffffff163373ffffffffffffffffffffffffffffffffffffffff1614611125576040517f08c379a000000000000000000000000000000000000000000000000000000000815260040161111c906120ad565b60405180910390fd5b5f5f9054906101000a900460ff16611172576040517f08c379a000000000000000000000000000000000000000000000000000000000815260040161116990611a01565b60405180910390fd5b60028054905081106111b9576040517f08c379a00000000000000000000000000000000000000000000000000000000081526004016111b0906118a7565b60405180910390fd5b5f600282815481106111ce576111cd6118c5565b5b905f5260205f2090600502019050600160048111156111f0576111ef6115a4565b5b8160010160089054906101000a900460ff166004811115611214576112136115a4565b5b14611254576040517f08c379a000000000000000000000000000000000000000000000000000000000815260040161124b90612115565b60405180910390fd5b60028160010160086101000a81548160ff0219169083600481111561127c5761127b6115a4565b5b0217905550817f3ad93af63cb7967b23e4fb500b7d7d28b07516325dcf341f88bebf959d82c1cb60405160405180910390a260048160010160086101000a81548160ff021916908360048111156112d6576112d56115a4565b5b02179055505f7f000000000000000000000000000000000000000000000000000000000000000073ffffffffffffffffffffffffffffffffffffffff16825f015460405161132390611be4565b5f6040518083038185875af1925050503d805f811461135d576040519150601f19603f3d011682016040523d82523d5f602084013e611362565b606091505b50509050806113a6576040517f08c379a000000000000000000000000000000000000000000000000000000000815260040161139d9061224d565b60405180910390fd5b7f000000000000000000000000000000000000000000000000000000000000000073ffffffffffffffffffffffffffffffffffffffff16837f4f2d18324ee95128de091ed2adc501295479000ce4c2cec607aeb1b67e189e2f845f015460405161141091906114fd565b60405180910390a3505050565b5f5f9054906101000a900460ff1681565b6203f48081565b6040518060c001604052805f81526020015f67ffffffffffffffff1681526020015f6004811115611469576114686115a4565b5b815260200160608152602001606081526020015f67ffffffffffffffff1681525090565b5f73ffffffffffffffffffffffffffffffffffffffff82169050919050565b5f6114b68261148d565b9050919050565b6114c6816114ac565b82525050565b5f6020820190506114df5f8301846114bd565b92915050565b5f819050919050565b6114f7816114e5565b82525050565b5f6020820190506115105f8301846114ee565b92915050565b5f5ffd5b5f5ffd5b611527816114e5565b8114611531575f5ffd5b50565b5f813590506115428161151e565b92915050565b5f6020828403121561155d5761155c611516565b5b5f61156a84828501611534565b91505092915050565b61157c816114e5565b82525050565b5f67ffffffffffffffff82169050919050565b61159e81611582565b82525050565b7f4e487b71000000000000000000000000000000000000000000000000000000005f52602160045260245ffd5b600581106115e2576115e16115a4565b5b50565b5f8190506115f2826115d1565b919050565b5f611601826115e5565b9050919050565b611611816115f7565b82525050565b5f81519050919050565b5f82825260208201905092915050565b8281835e5f83830152505050565b5f601f19601f8301169050919050565b5f61165982611617565b6116638185611621565b9350611673818560208601611631565b61167c8161163f565b840191505092915050565b5f60c083015f83015161169c5f860182611573565b5060208301516116af6020860182611595565b5060408301516116c26040860182611608565b50606083015184820360608601526116da828261164f565b915050608083015184820360808601526116f4828261164f565b91505060a083015161170960a0860182611595565b508091505092915050565b5f6020820190508181035f83015261172c8184611687565b905092915050565b5f5ffd5b5f5ffd5b5f5ffd5b5f5f83601f84011261175557611754611734565b5b8235905067ffffffffffffffff81111561177257611771611738565b5b60208301915083600182028301111561178e5761178d61173c565b5b9250929050565b5f5f5f604084860312156117ac576117ab611516565b5b5f6117b986828701611534565b935050602084013567ffffffffffffffff8111156117da576117d961151a565b5b6117e686828701611740565b92509250509250925092565b5f8115159050919050565b611806816117f2565b82525050565b5f60208201905061181f5f8301846117fd565b92915050565b61182e81611582565b82525050565b5f6020820190506118475f830184611825565b92915050565b5f82825260208201905092915050565b7f4f4f4200000000000000000000000000000000000000000000000000000000005f82015250565b5f61189160038361184d565b915061189c8261185d565b602082019050919050565b5f6020820190508181035f8301526118be81611885565b9050919050565b7f4e487b71000000000000000000000000000000000000000000000000000000005f52603260045260245ffd5b7f4e487b71000000000000000000000000000000000000000000000000000000005f52602260045260245ffd5b5f600282049050600182168061193657607f821691505b602082108103611949576119486118f2565b5b50919050565b7f4e4f545f50524f564944455200000000000000000000000000000000000000005f82015250565b5f611983600c8361184d565b915061198e8261194f565b602082019050919050565b5f6020820190508181035f8301526119b081611977565b9050919050565b7f4e4f545f46554e444544000000000000000000000000000000000000000000005f82015250565b5f6119eb600a8361184d565b91506119f6826119b7565b602082019050919050565b5f6020820190508181035f830152611a18816119df565b9050919050565b7f4241445f535441545553000000000000000000000000000000000000000000005f82015250565b5f611a53600a8361184d565b9150611a5e82611a1f565b602082019050919050565b5f6020820190508181035f830152611a8081611a47565b9050919050565b7f4e4f5f5355424d49545f545300000000000000000000000000000000000000005f82015250565b5f611abb600c8361184d565b9150611ac682611a87565b602082019050919050565b5f6020820190508181035f830152611ae881611aaf565b9050919050565b7f4e487b71000000000000000000000000000000000000000000000000000000005f52601160045260245ffd5b5f611b26826114e5565b9150611b31836114e5565b9250828201905080821115611b4957611b48611aef565b5b92915050565b7f444953505554455f57494e444f570000000000000000000000000000000000005f82015250565b5f611b83600e8361184d565b9150611b8e82611b4f565b602082019050919050565b5f6020820190508181035f830152611bb081611b77565b9050919050565b5f81905092915050565b50565b5f611bcf5f83611bb7565b9150611bda82611bc1565b5f82019050919050565b5f611bee82611bc4565b9150819050919050565b7f5041595f4641494c0000000000000000000000000000000000000000000000005f82015250565b5f611c2c60088361184d565b9150611c3782611bf8565b602082019050919050565b5f6020820190508181035f830152611c5981611c20565b9050919050565b5f611c6a826114e5565b9150611c75836114e5565b9250828203905081811115611c8d57611c8c611aef565b5b92915050565b7f505245565f4e4f545f50414944000000000000000000000000000000000000005f82015250565b5f611cc7600d8361184d565b9150611cd282611c93565b602082019050919050565b5f6020820190508181035f830152611cf481611cbb565b9050919050565b7f454d5054595f50524f4f460000000000000000000000000000000000000000005f82015250565b5f611d2f600b8361184d565b9150611d3a82611cfb565b602082019050919050565b5f6020820190508181035f830152611d5c81611d23565b9050919050565b5f82905092915050565b7f4e487b71000000000000000000000000000000000000000000000000000000005f52604160045260245ffd5b5f819050815f5260205f209050919050565b5f6020601f8301049050919050565b5f82821b905092915050565b5f60088302611df67fffffffffffffffffffffffffffffffffffffffffffffffffffffffffffffffff82611dbb565b611e008683611dbb565b95508019841693508086168417925050509392505050565b5f819050919050565b5f611e3b611e36611e31846114e5565b611e18565b6114e5565b9050919050565b5f819050919050565b611e5483611e21565b611e68611e6082611e42565b848454611dc7565b825550505050565b5f5f905090565b611e7f611e70565b611e8a818484611e4b565b505050565b5b81811015611ead57611ea25f82611e77565b600181019050611e90565b5050565b601f821115611ef257611ec381611d9a565b611ecc84611dac565b81016020851015611edb578190505b611eef611ee785611dac565b830182611e8f565b50505b505050565b5f82821c905092915050565b5f611f125f1984600802611ef7565b1980831691505092915050565b5f611f2a8383611f03565b9150826002028217905092915050565b611f448383611d63565b67ffffffffffffffff811115611f5d57611f5c611d6d565b5b611f67825461191f565b611f72828285611eb1565b5f601f831160018114611f9f575f8415611f8d578287013590505b611f978582611f1f565b865550611ffe565b601f198416611fad86611d9a565b5f5b82811015611fd457848901358255600182019150602085019450602081019050611faf565b86831015611ff15784890135611fed601f891682611f03565b8355505b6001600288020188555050505b50505050505050565b828183375f83830152505050565b5f612020838561184d565b935061202d838584612007565b6120368361163f565b840190509392505050565b5f6020820190508181035f83015261205a818486612015565b90509392505050565b7f4e4f545f434c49454e54000000000000000000000000000000000000000000005f82015250565b5f612097600a8361184d565b91506120a282612063565b602082019050919050565b5f6020820190508181035f8301526120c48161208b565b9050919050565b7f4e4f545f5355424d4954544544000000000000000000000000000000000000005f82015250565b5f6120ff600d8361184d565b915061210a826120cb565b602082019050919050565b5f6020820190508181035f83015261212c816120f3565b9050919050565b7f414c52454144595f46554e4445440000000000000000000000000000000000005f82015250565b5f612167600e8361184d565b915061217282612133565b602082019050919050565b5f6020820190508181035f8301526121948161215b565b9050919050565b7f4241445f56414c554500000000000000000000000000000000000000000000005f82015250565b5f6121cf60098361184d565b91506121da8261219b565b602082019050919050565b5f6020820190508181035f8301526121fc816121c3565b9050919050565b7f5041595f4641494c4544000000000000000000000000000000000000000000005f82015250565b5f612237600a8361184d565b915061224282612203565b602082019050919050565b5f6020820190508181035f8301526122648161222b565b905091905056fea26469706673582212202b3e46fad82f05d1c38ec7afe3a8d60d89fce098f578238f5a7efcbf6aaee5bf64736f6c634300081e0033","linkReferences":{}},"methodIdentifiers":{"DISPUTE_WINDOW()":"f585dc57","approve(uint256)":"b759f954","claim(uint256)":"379607f5","client()":"109e94cf","fund()":"b60d4288","funded()":"f3a504f2","getMilestone(uint256)":"2442e1cb","milestonesCount()":"ab36e4a6","provider()":"085d4883","reject(uint256,string)":"71d68a97","submit(uint256,string)":"5d63f6c6","totalAmount()":"1a39d8ef"},"id":2}