{"abi":[{"type":"constructor","inputs":[{"name":"_client","type":"address","internalType":"address"},{"name":"_provider","type":"address","internalType":"address"},{"name":"amounts","type":"uint256[]","internalType":"uint256[]"},{"name":"deadlines","type":"uint64[]","internalType":"uint64[]"}],"stateMutability":"nonpayable"},{"type":"function","name":"approve","inputs":[{"name":"i","type":"uint256","internalType":"uint256"}],"outputs":[],"stateMutability":"nonpayable"},{"type":"function","name":"client","inputs":[],"outputs":[{"name":"","type":"address","internalType":"address"}],"stateMutability":"view"},{"type":"function","name":"fund","inputs":[],"outputs":[],"stateMutability":"payable"},{"type":"function","name":"funded","inputs":[],"outputs":[{"name":"","type":"bool","internalType":"bool"}],"stateMutability":"view"},{"type":"function","name":"getMilestone","inputs":[{"name":"i","type":"uint256","internalType":"uint256"}],"outputs":[{"name":"","type":"tuple","internalType":"struct MilestoneEscrow.Milestone","components":[{"name":"amount","type":"uint256","internalType":"uint256"},{"name":"deadline","type":"uint64","internalType":"uint64"},{"name":"status","type":"uint8","internalType":"enum MilestoneEscrow.Status"},{"name":"proofURI","type":"string","internalType":"string"},{"name":"reasonURI","type":"string","internalType":"string"}]}],"stateMutability":"view"},{"type":"function","name":"milestonesCount","inputs":[],"outputs":[{"name":"","type":"uint256","internalType":"uint256"}],"stateMutability":"view"},{"type":"function","name":"provider","inputs":[],"outputs":[{"name":"","type":"address","internalType":"address"}],"stateMutability":"view"},{"type":"function","name":"reject","inputs":[{"name":"i","type":"uint256","internalType":"uint256"},{"name":"reasonURI","type":"string","internalType":"string"}],"outputs":[],"stateMutability":"nonpayable"},{"type":"function","name":"submit","inputs":[{"name":"i","type":"uint256","internalType":"uint256"},{"name":"proofURI","type":"string","internalType":"string"}],"outputs":[],"stateMutability":"nonpayable"},{"type":"function","name":"totalAmount","inputs":[],"outputs":[{"name":"","type":"uint256","internalType":"uint256"}],"stateMutability":"view"},{"type":"event","name":"Approved","inputs":[{"name":"milestoneIndex","type":"uint256","indexed":true,"internalType":"uint256"}],"anonymous":false},{"type":"event","name":"EscrowCreated","inputs":[{"name":"client","type":"address","indexed":true,"internalType":"address"},{"name":"provider","type":"address","indexed":true,"internalType":"address"},{"name":"milestones","type":"uint256","indexed":false,"internalType":"uint256"},{"name":"totalAmount","type":"uint256","indexed":false,"internalType":"uint256"}],"anonymous":false},{"type":"event","name":"Funded","inputs":[{"name":"client","type":"address","indexed":true,"internalType":"address"},{"name":"amount","type":"uint256","indexed":false,"internalType":"uint256"}],"anonymous":false},{"type":"event","name":"Paid","inputs":[{"name":"milestoneIndex","type":"uint256","indexed":true,"internalType":"uint256"},{"name":"to","type":"address","indexed":true,"internalType":"address"},{"name":"amount","type":"uint256","indexed":false,"internalType":"uint256"}],"anonymous":false},{"type":"event","name":"Rejected","inputs":[{"name":"milestoneIndex","type":"uint256","indexed":true,"internalType":"uint256"},{"name":"reasonURI","type":"string","indexed":false,"internalType":"string"}],"anonymous":false},{"type":"event","name":"Submitted","inputs":[{"name":"milestoneIndex","type":"uint256","indexed":true,"internalType":"uint256"},{"name":"proofURI","type":"string","indexed":false,"internalType":"string"}],"anonymous":false}],"bytecode":{"object":"0x60c060405234801561000f575f5ffd5b5060405161281e38038061281e8339818101604052810190610031919061071f565b5f73ffffffffffffffffffffffffffffffffffffffff168473ffffffffffffffffffffffffffffffffffffffff161415801561009957505f73ffffffffffffffffffffffffffffffffffffffff168373ffffffffffffffffffffffffffffffffffffffff1614155b6100d8576040517f08c379a00000000000000000000000000000000000000000000000000000000081526004016100cf90610815565b60405180910390fd5b5f82511161011b576040517f08c379a00000000000000000000000000000000000000000000000000000000081526004016101129061087d565b60405180910390fd5b805182511461015f576040517f08c379a0000000000000000000000000000000000000000000000000000000008152600401610156906108e5565b60405180910390fd5b8373ffffffffffffffffffffffffffffffffffffffff1660808173ffffffffffffffffffffffffffffffffffffffff16815250508273ffffffffffffffffffffffffffffffffffffffff1660a08173ffffffffffffffffffffffffffffffffffffffff16815250505f5f5f90505b83518110156103b6575f8482815181106101ea576101e9610903565b5b602002602001015111610232576040517f08c379a00000000000000000000000000000000000000000000000000000000081526004016102299061097a565b60405180910390fd5b60026040518060a0016040528086848151811061025257610251610903565b5b6020026020010151815260200185848151811061027257610271610903565b5b602002602001015167ffffffffffffffff1681526020015f600481111561029c5761029b610998565b5b815260200160405180602001604052805f815250815260200160405180602001604052805f815250815250908060018154018082558091505060019003905f5260205f2090600402015f909190919091505f820151815f01556020820151816001015f6101000a81548167ffffffffffffffff021916908367ffffffffffffffff16021790555060408201518160010160086101000a81548160ff0219169083600481111561034e5761034d610998565b5b021790555060608201518160020190816103689190610bcc565b50608082015181600301908161037e9190610bcc565b50505083818151811061039457610393610903565b5b6020026020010151826103a79190610cc8565b915080806001019150506101cd565b508060018190555060a05173ffffffffffffffffffffffffffffffffffffffff1660805173ffffffffffffffffffffffffffffffffffffffff167f5f1c67a4567ebc365d6a9ce0622c51e2fff9198c740d4fb8b5af2d4b4b2852af855184604051610422929190610d0a565b60405180910390a35050505050610d31565b5f604051905090565b5f5ffd5b5f5ffd5b5f73ffffffffffffffffffffffffffffffffffffffff82169050919050565b5f61046e82610445565b9050919050565b61047e81610464565b8114610488575f5ffd5b50565b5f8151905061049981610475565b92915050565b5f5ffd5b5f601f19601f8301169050919050565b7f4e487b71000000000000000000000000000000000000000000000000000000005f52604160045260245ffd5b6104e9826104a3565b810181811067ffffffffffffffff82111715610508576105076104b3565b5b80604052505050565b5f61051a610434565b905061052682826104e0565b919050565b5f67ffffffffffffffff821115610545576105446104b3565b5b602082029050602081019050919050565b5f5ffd5b5f819050919050565b61056c8161055a565b8114610576575f5ffd5b50565b5f8151905061058781610563565b92915050565b5f61059f61059a8461052b565b610511565b905080838252602082019050602084028301858111156105c2576105c1610556565b5b835b818110156105eb57806105d78882610579565b8452602084019350506020810190506105c4565b5050509392505050565b5f82601f8301126106095761060861049f565b5b815161061984826020860161058d565b91505092915050565b5f67ffffffffffffffff82111561063c5761063b6104b3565b5b602082029050602081019050919050565b5f67ffffffffffffffff82169050919050565b6106698161064d565b8114610673575f5ffd5b50565b5f8151905061068481610660565b92915050565b5f61069c61069784610622565b610511565b905080838252602082019050602084028301858111156106bf576106be610556565b5b835b818110156106e857806106d48882610676565b8452602084019350506020810190506106c1565b5050509392505050565b5f82601f8301126107065761070561049f565b5b815161071684826020860161068a565b91505092915050565b5f5f5f5f608085870312156107375761073661043d565b5b5f6107448782880161048b565b94505060206107558782880161048b565b935050604085015167ffffffffffffffff81111561077657610775610441565b5b610782878288016105f5565b925050606085015167ffffffffffffffff8111156107a3576107a2610441565b5b6107af878288016106f2565b91505092959194509250565b5f82825260208201905092915050565b7f5a45524f5f4144445200000000000000000000000000000000000000000000005f82015250565b5f6107ff6009836107bb565b915061080a826107cb565b602082019050919050565b5f6020820190508181035f83015261082c816107f3565b9050919050565b7f4e4f5f4d494c4553544f4e4553000000000000000000000000000000000000005f82015250565b5f610867600d836107bb565b915061087282610833565b602082019050919050565b5f6020820190508181035f8301526108948161085b565b9050919050565b7f4c454e5f4d49534d4154434800000000000000000000000000000000000000005f82015250565b5f6108cf600c836107bb565b91506108da8261089b565b602082019050919050565b5f6020820190508181035f8301526108fc816108c3565b9050919050565b7f4e487b71000000000000000000000000000000000000000000000000000000005f52603260045260245ffd5b7f5a45524f5f414d4f554e540000000000000000000000000000000000000000005f82015250565b5f610964600b836107bb565b915061096f82610930565b602082019050919050565b5f6020820190508181035f83015261099181610958565b9050919050565b7f4e487b71000000000000000000000000000000000000000000000000000000005f52602160045260245ffd5b5f81519050919050565b7f4e487b71000000000000000000000000000000000000000000000000000000005f52602260045260245ffd5b5f6002820490506001821680610a1357607f821691505b602082108103610a2657610a256109cf565b5b50919050565b5f819050815f5260205f209050919050565b5f6020601f8301049050919050565b5f82821b905092915050565b5f60088302610a887fffffffffffffffffffffffffffffffffffffffffffffffffffffffffffffffff82610a4d565b610a928683610a4d565b95508019841693508086168417925050509392505050565b5f819050919050565b5f610acd610ac8610ac38461055a565b610aaa565b61055a565b9050919050565b5f819050919050565b610ae683610ab3565b610afa610af282610ad4565b848454610a59565b825550505050565b5f5f905090565b610b11610b02565b610b1c818484610add565b505050565b5b81811015610b3f57610b345f82610b09565b600181019050610b22565b5050565b601f821115610b8457610b5581610a2c565b610b5e84610a3e565b81016020851015610b6d578190505b610b81610b7985610a3e565b830182610b21565b50505b505050565b5f82821c905092915050565b5f610ba45f1984600802610b89565b1980831691505092915050565b5f610bbc8383610b95565b9150826002028217905092915050565b610bd5826109c5565b67ffffffffffffffff811115610bee57610bed6104b3565b5b610bf882546109fc565b610c03828285610b43565b5f60209050601f831160018114610c34575f8415610c22578287015190505b610c2c8582610bb1565b865550610c93565b601f198416610c4286610a2c565b5f5b82811015610c6957848901518255600182019150602085019450602081019050610c44565b86831015610c865784890151610c82601f891682610b95565b8355505b6001600288020188555050505b505050505050565b7f4e487b71000000000000000000000000000000000000000000000000000000005f52601160045260245ffd5b5f610cd28261055a565b9150610cdd8361055a565b9250828201905080821115610cf557610cf4610c9b565b5b92915050565b610d048161055a565b82525050565b5f604082019050610d1d5f830185610cfb565b610d2a6020830184610cfb565b9392505050565b60805160a051611aa2610d7c5f395f81816102260152818161048a01528181610d640152610e2e01525f818161024a0152818161074c015281816109960152610b1f0152611aa25ff3fe608060405260043610610090575f3560e01c806371d68a971161005857806371d68a9714610176578063ab36e4a61461019e578063b60d4288146101c8578063b759f954146101d2578063f3a504f2146101fa57610090565b8063085d488314610094578063109e94cf146100be5780631a39d8ef146100e85780632442e1cb146101125780635d63f6c61461014e575b5f5ffd5b34801561009f575f5ffd5b506100a8610224565b6040516100b59190610f3b565b60405180910390f35b3480156100c9575f5ffd5b506100d2610248565b6040516100df9190610f3b565b60405180910390f35b3480156100f3575f5ffd5b506100fc61026c565b6040516101099190610f6c565b60405180910390f35b34801561011d575f5ffd5b5061013860048036038101906101339190610fb7565b610272565b6040516101459190611170565b60405180910390f35b348015610159575f5ffd5b50610174600480360381019061016f91906111f1565b610488565b005b348015610181575f5ffd5b5061019c600480360381019061019791906111f1565b61074a565b005b3480156101a9575f5ffd5b506101b2610988565b6040516101bf9190610f6c565b60405180910390f35b6101d0610994565b005b3480156101dd575f5ffd5b506101f860048036038101906101f39190610fb7565b610b1d565b005b348015610205575f5ffd5b5061020e610ea3565b60405161021b9190611268565b60405180910390f35b7f000000000000000000000000000000000000000000000000000000000000000081565b7f000000000000000000000000000000000000000000000000000000000000000081565b60015481565b61027a610eb4565b60028054905082106102c1576040517f08c379a00000000000000000000000000000000000000000000000000000000081526004016102b8906112db565b60405180910390fd5b600282815481106102d5576102d46112f9565b5b905f5260205f2090600402016040518060a00160405290815f8201548152602001600182015f9054906101000a900467ffffffffffffffff1667ffffffffffffffff1667ffffffffffffffff1681526020016001820160089054906101000a900460ff16600481111561034b5761034a611013565b5b600481111561035d5761035c611013565b5b815260200160028201805461037190611353565b80601f016020809104026020016040519081016040528092919081815260200182805461039d90611353565b80156103e85780601f106103bf576101008083540402835291602001916103e8565b820191905f5260205f20905b8154815290600101906020018083116103cb57829003601f168201915b5050505050815260200160038201805461040190611353565b80601f016020809104026020016040519081016040528092919081815260200182805461042d90611353565b80156104785780601f1061044f57610100808354040283529160200191610478565b820191905f5260205f20905b81548152906001019060200180831161045b57829003601f168201915b5050505050815250509050919050565b7f000000000000000000000000000000000000000000000000000000000000000073ffffffffffffffffffffffffffffffffffffffff163373ffffffffffffffffffffffffffffffffffffffff1614610516576040517f08c379a000000000000000000000000000000000000000000000000000000000815260040161050d906113cd565b60405180910390fd5b5f5f9054906101000a900460ff16610563576040517f08c379a000000000000000000000000000000000000000000000000000000000815260040161055a90611435565b60405180910390fd5b60028054905083106105aa576040517f08c379a00000000000000000000000000000000000000000000000000000000081526004016105a1906112db565b60405180910390fd5b5f600284815481106105bf576105be6112f9565b5b905f5260205f20906004020190505f60048111156105e0576105df611013565b5b8160010160089054906101000a900460ff16600481111561060457610603611013565b5b148061064557506003600481111561061f5761061e611013565b5b8160010160089054906101000a900460ff16600481111561064357610642611013565b5b145b610684576040517f08c379a000000000000000000000000000000000000000000000000000000000815260040161067b9061149d565b60405180910390fd5b5f83839050116106c9576040517f08c379a00000000000000000000000000000000000000000000000000000000081526004016106c090611505565b60405180910390fd5b60018160010160086101000a81548160ff021916908360048111156106f1576106f0611013565b5b021790555082828260020191826107099291906116fa565b50837f4265767722bbe0340188be0f4344c9badec6c9d1af21c6965f3aa73db885f930848460405161073c929190611801565b60405180910390a250505050565b7f000000000000000000000000000000000000000000000000000000000000000073ffffffffffffffffffffffffffffffffffffffff163373ffffffffffffffffffffffffffffffffffffffff16146107d8576040517f08c379a00000000000000000000000000000000000000000000000000000000081526004016107cf9061186d565b60405180910390fd5b5f5f9054906101000a900460ff16610825576040517f08c379a000000000000000000000000000000000000000000000000000000000815260040161081c90611435565b60405180910390fd5b600280549050831061086c576040517f08c379a0000000000000000000000000000000000000000000000000000000008152600401610863906112db565b60405180910390fd5b5f60028481548110610881576108806112f9565b5b905f5260205f2090600402019050600160048111156108a3576108a2611013565b5b8160010160089054906101000a900460ff1660048111156108c7576108c6611013565b5b14610907576040517f08c379a00000000000000000000000000000000000000000000000000000000081526004016108fe906118d5565b60405180910390fd5b60038160010160086101000a81548160ff0219169083600481111561092f5761092e611013565b5b021790555082828260030191826109479291906116fa565b50837f1ec33cb62ecf0e65a07b81c73d499abb5af88584b9ae7cc9d4b1b80515dbe028848460405161097a929190611801565b60405180910390a250505050565b5f600280549050905090565b7f000000000000000000000000000000000000000000000000000000000000000073ffffffffffffffffffffffffffffffffffffffff163373ffffffffffffffffffffffffffffffffffffffff1614610a22576040517f08c379a0000000000000000000000000000000000000000000000000000000008152600401610a199061186d565b60405180910390fd5b5f5f9054906101000a900460ff1615610a70576040517f08c379a0000000000000000000000000000000000000000000000000000000008152600401610a679061193d565b60405180910390fd5b6001543414610ab4576040517f08c379a0000000000000000000000000000000000000000000000000000000008152600401610aab906119a5565b60405180910390fd5b60015f5f6101000a81548160ff0219169083151502179055503373ffffffffffffffffffffffffffffffffffffffff167f5af8184bef8e4b45eb9f6ed7734d04da38ced226495548f46e0c8ff8d7d9a52434604051610b139190610f6c565b60405180910390a2565b7f000000000000000000000000000000000000000000000000000000000000000073ffffffffffffffffffffffffffffffffffffffff163373ffffffffffffffffffffffffffffffffffffffff1614610bab576040517f08c379a0000000000000000000000000000000000000000000000000000000008152600401610ba29061186d565b60405180910390fd5b5f5f9054906101000a900460ff16610bf8576040517f08c379a0000000000000000000000000000000000000000000000000000000008152600401610bef90611435565b60405180910390fd5b6002805490508110610c3f576040517f08c379a0000000000000000000000000000000000000000000000000000000008152600401610c36906112db565b60405180910390fd5b5f60028281548110610c5457610c536112f9565b5b905f5260205f209060040201905060016004811115610c7657610c75611013565b5b8160010160089054906101000a900460ff166004811115610c9a57610c99611013565b5b14610cda576040517f08c379a0000000000000000000000000000000000000000000000000000000008152600401610cd1906118d5565b60405180910390fd5b60028160010160086101000a81548160ff02191690836004811115610d0257610d01611013565b5b0217905550817f3ad93af63cb7967b23e4fb500b7d7d28b07516325dcf341f88bebf959d82c1cb60405160405180910390a260048160010160086101000a81548160ff02191690836004811115610d5c57610d5b611013565b5b02179055505f7f000000000000000000000000000000000000000000000000000000000000000073ffffffffffffffffffffffffffffffffffffffff16825f0154604051610da9906119f0565b5f6040518083038185875af1925050503d805f8114610de3576040519150601f19603f3d011682016040523d82523d5f602084013e610de8565b606091505b5050905080610e2c576040517f08c379a0000000000000000000000000000000000000000000000000000000008152600401610e2390611a4e565b60405180910390fd5b7f000000000000000000000000000000000000000000000000000000000000000073ffffffffffffffffffffffffffffffffffffffff16837f4f2d18324ee95128de091ed2adc501295479000ce4c2cec607aeb1b67e189e2f845f0154604051610e969190610f6c565b60405180910390a3505050565b5f5f9054906101000a900460ff1681565b6040518060a001604052805f81526020015f67ffffffffffffffff1681526020015f6004811115610ee857610ee7611013565b5b815260200160608152602001606081525090565b5f73ffffffffffffffffffffffffffffffffffffffff82169050919050565b5f610f2582610efc565b9050919050565b610f3581610f1b565b82525050565b5f602082019050610f4e5f830184610f2c565b92915050565b5f819050919050565b610f6681610f54565b82525050565b5f602082019050610f7f5f830184610f5d565b92915050565b5f5ffd5b5f5ffd5b610f9681610f54565b8114610fa0575f5ffd5b50565b5f81359050610fb181610f8d565b92915050565b5f60208284031215610fcc57610fcb610f85565b5b5f610fd984828501610fa3565b91505092915050565b610feb81610f54565b82525050565b5f67ffffffffffffffff82169050919050565b61100d81610ff1565b82525050565b7f4e487b71000000000000000000000000000000000000000000000000000000005f52602160045260245ffd5b6005811061105157611050611013565b5b50565b5f81905061106182611040565b919050565b5f61107082611054565b9050919050565b61108081611066565b82525050565b5f81519050919050565b5f82825260208201905092915050565b8281835e5f83830152505050565b5f601f19601f8301169050919050565b5f6110c882611086565b6110d28185611090565b93506110e28185602086016110a0565b6110eb816110ae565b840191505092915050565b5f60a083015f83015161110b5f860182610fe2565b50602083015161111e6020860182611004565b5060408301516111316040860182611077565b506060830151848203606086015261114982826110be565b9150506080830151848203608086015261116382826110be565b9150508091505092915050565b5f6020820190508181035f83015261118881846110f6565b905092915050565b5f5ffd5b5f5ffd5b5f5ffd5b5f5f83601f8401126111b1576111b0611190565b5b8235905067ffffffffffffffff8111156111ce576111cd611194565b5b6020830191508360018202830111156111ea576111e9611198565b5b9250929050565b5f5f5f6040848603121561120857611207610f85565b5b5f61121586828701610fa3565b935050602084013567ffffffffffffffff81111561123657611235610f89565b5b6112428682870161119c565b92509250509250925092565b5f8115159050919050565b6112628161124e565b82525050565b5f60208201905061127b5f830184611259565b92915050565b5f82825260208201905092915050565b7f4f4f4200000000000000000000000000000000000000000000000000000000005f82015250565b5f6112c5600383611281565b91506112d082611291565b602082019050919050565b5f6020820190508181035f8301526112f2816112b9565b9050919050565b7f4e487b71000000000000000000000000000000000000000000000000000000005f52603260045260245ffd5b7f4e487b71000000000000000000000000000000000000000000000000000000005f52602260045260245ffd5b5f600282049050600182168061136a57607f821691505b60208210810361137d5761137c611326565b5b50919050565b7f4e4f545f50524f564944455200000000000000000000000000000000000000005f82015250565b5f6113b7600c83611281565b91506113c282611383565b602082019050919050565b5f6020820190508181035f8301526113e4816113ab565b9050919050565b7f4e4f545f46554e444544000000000000000000000000000000000000000000005f82015250565b5f61141f600a83611281565b915061142a826113eb565b602082019050919050565b5f6020820190508181035f83015261144c81611413565b9050919050565b7f4241445f535441545553000000000000000000000000000000000000000000005f82015250565b5f611487600a83611281565b915061149282611453565b602082019050919050565b5f6020820190508181035f8301526114b48161147b565b9050919050565b7f454d5054595f50524f4f460000000000000000000000000000000000000000005f82015250565b5f6114ef600b83611281565b91506114fa826114bb565b602082019050919050565b5f6020820190508181035f83015261151c816114e3565b9050919050565b5f82905092915050565b7f4e487b71000000000000000000000000000000000000000000000000000000005f52604160045260245ffd5b5f819050815f5260205f209050919050565b5f6020601f8301049050919050565b5f82821b905092915050565b5f600883026115b67fffffffffffffffffffffffffffffffffffffffffffffffffffffffffffffffff8261157b565b6115c0868361157b565b95508019841693508086168417925050509392505050565b5f819050919050565b5f6115fb6115f66115f184610f54565b6115d8565b610f54565b9050919050565b5f819050919050565b611614836115e1565b61162861162082611602565b848454611587565b825550505050565b5f5f905090565b61163f611630565b61164a81848461160b565b505050565b5b8181101561166d576116625f82611637565b600181019050611650565b5050565b601f8211156116b2576116838161155a565b61168c8461156c565b8101602085101561169b578190505b6116af6116a78561156c565b83018261164f565b50505b505050565b5f82821c905092915050565b5f6116d25f19846008026116b7565b1980831691505092915050565b5f6116ea83836116c3565b9150826002028217905092915050565b6117048383611523565b67ffffffffffffffff81111561171d5761171c61152d565b5b6117278254611353565b611732828285611671565b5f601f83116001811461175f575f841561174d578287013590505b61175785826116df565b8655506117be565b601f19841661176d8661155a565b5f5b828110156117945784890135825560018201915060208501945060208101905061176f565b868310156117b157848901356117ad601f8916826116c3565b8355505b6001600288020188555050505b50505050505050565b828183375f83830152505050565b5f6117e08385611281565b93506117ed8385846117c7565b6117f6836110ae565b840190509392505050565b5f6020820190508181035f83015261181a8184866117d5565b90509392505050565b7f4e4f545f434c49454e54000000000000000000000000000000000000000000005f82015250565b5f611857600a83611281565b915061186282611823565b602082019050919050565b5f6020820190508181035f8301526118848161184b565b9050919050565b7f4e4f545f5355424d4954544544000000000000000000000000000000000000005f82015250565b5f6118bf600d83611281565b91506118ca8261188b565b602082019050919050565b5f6020820190508181035f8301526118ec816118b3565b9050919050565b7f414c52454144595f46554e4445440000000000000000000000000000000000005f82015250565b5f611927600e83611281565b9150611932826118f3565b602082019050919050565b5f6020820190508181035f8301526119548161191b565b9050919050565b7f4241445f56414c554500000000000000000000000000000000000000000000005f82015250565b5f61198f600983611281565b915061199a8261195b565b602082019050919050565b5f6020820190508181035f8301526119bc81611983565b9050919050565b5f81905092915050565b50565b5f6119db5f836119c3565b91506119e6826119cd565b5f82019050919050565b5f6119fa826119d0565b9150819050919050565b7f5041595f4641494c4544000000000000000000000000000000000000000000005f82015250565b5f611a38600a83611281565b9150611a4382611a04565b602082019050919050565b5f6020820190508181035f830152611a6581611a2c565b905091905056fea2646970667358221220447116c1fccb2e653664053b0f8be592a27cc4988242d83d3b2c4950c1092f8264736f6c634300081e0033","linkReferences":{}},"methodIdentifiers":{"approve(uint256)":"b759f954","client()":"109e94cf","fund()":"b60d4288","funded()":"f3a504f2","getMilestone(uint256)":"2442e1cb","milestonesCount()":"ab36e4a6","provider()":"085d4883","reject(uint256,string)":"71d68a97","submit(uint256,string)":"5d63f6c6","totalAmount()":"1a39d8ef"},"id":50}